:020000040000FA
:020000000428D2
:08000800FF3083120313A20074
:10001000FF30A300FF30A400FF30A5000F30A60082
:100020008A110A12A3230A308A110A1207248312A2
:10003000031327128A110A12842403308A110A1228
:100040008A2332308A110A12362403308A110A12A6
:100050008A2332308A110A12362403308A110A1296
:100060008A2332308A110A12362432308A110A1257
:100070006C2328308A110A126C230C308A110A1260
:100080006C23C8308A110A1236248A110A12692494
:10009000F0308A110A12CF24C0308A110A12C62207
:1000A0008A110A1236238A110A1276228312031346
:1000B0002C08A9008A110A12201D60282908AB000B
:1000C000AA012B08303C8A110A12031D6B28AA01D1
:1000D0008A110A12C0282B08313C8A110A12031D0A
:1000E00076280530AA008A110A12C0282B08323C53
:1000F0008A110A12031D81280A30AA008A110A12E5
:10010000C0282B08333C8A110A12031D8C280130A9
:10011000AA008A110A12C0282B08343C8A110A123C
:10012000031D97280430AA008A110A12C0282B0840
:10013000353C8A110A12031DA2280230AA008A1136
:100140000A12C0282B08363C8A110A12031DAD285A
:100150000830AA008A110A12C0282B08373C8A11DD
:100160000A12031DB8280630AA008A110A12C028F4
:100170002B08383C8A110A12031DC0280930AA0036
:100180002A088A110A129E24831203132B08313C79
:100190008A110A12031DF3288A110A1236236930C4
:1001A0008A110A1256236C308A110A1256236530BE
:1001B0008A110A12562372308A110A1256236930A4
:1001C0008A110A12562301308A110A12C323013000
:1001D0008A110A12D42301308A110A12E523013050
:1001E0008A110A12F623831203132B08323C8A1158
:1001F0000A12031D22298A110A12362367308A1136
:100200000A12562365308A110A12562372308A1157
:100210000A12562369308A110A12562330308A1185
:100220000A12562301308A110A12C32301308A119F
:100230000A12D42301308A110A12E52301308A11EF
:100240000A12F623831203132B08333C8A110A1275
:10025000031D5D298A110A12362373308A110A128E
:1002600056236F308A110A1256236C308A110A12F3
:10027000562369308A110A1256236C308A110A12E9
:10028000562365308A110A12562372308A110A12D7
:10029000562369308A110A12562301308A110A1234
:1002A000C32301308A110A12D42301308A110A12A1
:1002B000E52301308A110A12F623831203132B0857
:1002C000343C8A110A12031D98298A110A12362316
:1002D00073308A110A12562361308A110A1256238A
:1002E00067308A110A12562369308A110A1256237E
:1002F0006C308A110A12562365308A110A1256236D
:1003000072308A110A12562369308A110A12562352
:1003100001308A110A12C32301308A110A12D42330
:1003200001308A110A12E52301308A110A12F623DC
:10033000831203132B08353C8A110A12031DCF299F
:100340008A110A12362373308A110A1256236F302B
:100350008A110A1256236C308A110A12562367300A
:100360008A110A12562365308A110A1256237230F6
:100370008A110A12562369308A110A125623013053
:100380008A110A12C32301308A110A12D4230130C0
:100390008A110A12E52301308A110A12F623831208
:1003A00003132B08363C8A110A12031D062A8A11F0
:1003B0000A12362373308A110A12562361308A11C9
:1003C0000A12562367308A110A12562367308A119F
:1003D0000A12562365308A110A12562372308A1186
:1003E0000A12562369308A110A12562301308A11E3
:1003F0000A12C32301308A110A12D42301308A1150
:100400000A12E52301308A110A12F623831203131C
:100410002B08373C8A110A12031D392A8A110A1245
:10042000362373308A110A1256236F308A110A124A
:1004300056236C308A110A12562361308A110A122F
:10044000562364308A110A1256236F308A110A1219
:1004500056236E308A110A12562301308A110A126D
:10046000C32301308A110A12D42301308A110A12DF
:10047000E523831203132B08383C8A110A12031D4B
:100480006C2A8A110A12362373308A110A125623F3
:1004900061308A110A12562367308A110A125623D4
:1004A00061308A110A12562364308A110A125623C7
:1004B0006F308A110A1256236E308A110A1256239F
:1004C00001308A110A12C32301308A110A12D4237F
:1004D00001308A110A12E523303083120313AB0076
:1004E0008A110A1253288A110A12732A83120313DB
:1004F000AC008A110A12831203138C1E912A8A11EE
:100500000A129822831203132D0883120313AC00DE
:100510008312031320158A110A12972A8A110A12CC
:10052000972A8312031320118A110A12972A0800AE
:1005300083120313AD008A110A12E5248A110A12EC
:10054000831203138C1AA72A8A110A129E2A1A30C0
:1005500083120313AE008A110A127124831203134B
:100560002F0883120313AD008312031318080239F6
:10057000003C8A110A120318C52AEF3083120313B4
:100580009805103083120313980408008312031394
:10059000AC00831203132C08C03C8A110A12031DFD
:1005A000E12A8A110A12E2240C30831603139900FF
:1005B0008316031318158A110A12E5248A110A12E8
:1005C000262B831203132C08603C8A110A12031D88
:1005D000F92A8A110A12E2241930831603139900AA
:1005E0008316031318158A110A12E5248A110A12B8
:1005F000262B831203132C08183C8A110A12031DA0
:10060000112B8A110A12E224673083160313990012
:100610008316031318158A110A12E5248A110A1287
:10062000262B831203132C080C3C8A110A12031D7B
:10063000262B8A110A12E224CF3083160313990065
:100640008316031318158A110A12E5248A110A1257
:10065000E2248316031398168A110A12E5248312E2
:1006600003131816831203139817080008308A1111
:100670000A126C2301308A110A126C23C8308A11C5
:100680000A12362402308A110A126C23C8308A11E9
:100690000A12362406308A110A126C230C308A1191
:1006A0000A126C23C8308A110A12362C83120313E3
:1006B000AC008312031327168A110A1284242C0E0D
:1006C000831203130F398A110A128A238312031328
:1006D0002C088A110A128A2B83120313AC0083128E
:1006E000031327128A110A1284242C0E8312031377
:1006F0000F398A110A128A2382308A110A1236248B
:10070000831203132C088A110A128A2382308A1159
:100710000A12362C83120313AD0083120313A7169B
:100720008A110A128124831203132D088A110A12D6
:10073000872483120313A7128A110A128124FA3024
:100740008A110A12542C00308A110A12872483124B
:10075000031327128A110A12842483120313A71287
:100760008A110A12812400308A110A12B2248312DB
:10077000031323128A110A12CC2483120313A31227
:100780008A110A12C92C83120313AC0083120313BB
:100790002C0883120313AD00643083120313AE00E0
:1007A00064308A110A12182C83120313AC008312CE
:1007B00003132C0883120313AD0064308312031358
:1007C000AE0032308A110A12182C83120313AC00C7
:1007D000831203132C0883120313AD0064308312B9
:1007E0000313AE0014308A110A12182C831203135B
:1007F000AC00831203132C0883120313AD00643082
:1008000083120313AE000A308A110A12182C8312C5
:100810000313A90083120313290883120313AD00E5
:10082000643083120313AE0001308A110A12182CAF
:1008300083120313AF00FF3083120313B0002E089E
:10084000B2002D08B10017308A110A1230070318C0
:10085000262C8A110A12B10B232C8A110A12B20B10
:10086000212C8A110A12AF0B1F2C080083120313CC
:10087000AD00831203132D0883120313AE008312FD
:100880000313AE088A110A12031D492C8A110A1299
:10089000532C0A308A110A12542483120313AE0314
:1008A0008A110A123F2C080083120313AF00F430A0
:1008B00083120313B000FC3083120313B1008A11BA
:1008C0000A122F083007031C003431070318652C67
:1008D00008008A110A12E22407309F008A110A12C6
:1008E000E52C83120313AF00831203132E08831227
:1008F0000313840083120313000883120313AF0051
:1009000008008A110A12AB2C8A110A12AB2C83122E
:100910000313AE00831203132E080F39831203133F
:10092000AF00831203132708F039831203132F0437
:1009300083120313A7008A110A12AB2C831203132C
:10094000A8008A110A12A42C831203132808831208
:10095000031388000800831203132708831203136C
:100960008600080083120313A900831203132908C9
:100970000F3983120313AA00831203132308F039DB
:10098000831203132A0483120313A3008A110A1289
:10099000DD2C8A110A12DD2C8A110A12DD2C831239
:1009A0000313A5008A110A12D52C25088A110A12F0
:1009B000E22488008A110A12E52C8312031323080B
:1009C000660008008316031308008312031308004F
:02400E00723FFF
:00000001FF
